{
  "_format": "hh-sol-artifact-1",
  "contractName": "ScoreBoard",
  "sourceName": "contracts/ScoreBoard.sol",
  "abi": [
    {
      "inputs": [],
      "stateMutability": "nonpayable",
      "type": "constructor"
    },
    {
      "anonymous": false,
      "inputs": [
        {
          "indexed": false,
          "internalType": "uint256",
          "name": "count",
          "type": "uint256"
        },
        {
          "indexed": false,
          "internalType": "uint256",
          "name": "timestamp",
          "type": "uint256"
        }
      ],
      "name": "BatchScoresUpdated",
      "type": "event"
    },
    {
      "anonymous": false,
      "inputs": [
        {
          "indexed": true,
          "internalType": "address",
          "name": "previousOwner",
          "type": "address"
        },
        {
          "indexed": true,
          "internalType": "address",
          "name": "newOwner",
          "type": "address"
        }
      ],
      "name": "OwnershipTransferred",
      "type": "event"
    },
    {
      "anonymous": false,
      "inputs": [
        {
          "indexed": true,
          "internalType": "address",
          "name": "user",
          "type": "address"
        },
        {
          "indexed": false,
          "internalType": "uint256",
          "name": "builderScore",
          "type": "uint256"
        },
        {
          "indexed": false,
          "internalType": "uint256",
          "name": "degenScore",
          "type": "uint256"
        },
        {
          "indexed": false,
          "internalType": "uint256",
          "name": "timestamp",
          "type": "uint256"
        }
      ],
      "name": "ScoreUpdated",
      "type": "event"
    },
    {
      "inputs": [
        {
          "internalType": "address[]",
          "name": "users",
          "type": "address[]"
        },
        {
          "internalType": "uint256[]",
          "name": "builderScores",
          "type": "uint256[]"
        },
        {
          "internalType": "uint256[]",
          "name": "degenScores",
          "type": "uint256[]"
        }
      ],
      "name": "batchUpdateScores",
      "outputs": [],
      "stateMutability": "nonpayable",
      "type": "function"
    },
    {
      "inputs": [
        {
          "internalType": "address",
          "name": "user",
          "type": "address"
        }
      ],
      "name": "getBuilderScore",
      "outputs": [
        {
          "internalType": "uint256",
          "name": "",
          "type": "uint256"
        }
      ],
      "stateMutability": "view",
      "type": "function"
    },
    {
      "inputs": [
        {
          "internalType": "address",
          "name": "user",
          "type": "address"
        }
      ],
      "name": "getClassification",
      "outputs": [
        {
          "internalType": "uint8",
          "name": "",
          "type": "uint8"
        }
      ],
      "stateMutability": "view",
      "type": "function"
    },
    {
      "inputs": [
        {
          "internalType": "address",
          "name": "user",
          "type": "address"
        }
      ],
      "name": "getDegenScore",
      "outputs": [
        {
          "internalType": "uint256",
          "name": "",
          "type": "uint256"
        }
      ],
      "stateMutability": "view",
      "type": "function"
    },
    {
      "inputs": [
        {
          "internalType": "address",
          "name": "user",
          "type": "address"
        }
      ],
      "name": "getScore",
      "outputs": [
        {
          "components": [
            {
              "internalType": "uint256",
              "name": "builderScore",
              "type": "uint256"
            },
            {
              "internalType": "uint256",
              "name": "degenScore",
              "type": "uint256"
            },
            {
              "internalType": "uint256",
              "name": "lastUpdated",
              "type": "uint256"
            }
          ],
          "internalType": "struct ScoreBoard.Score",
          "name": "",
          "type": "tuple"
        }
      ],
      "stateMutability": "view",
      "type": "function"
    },
    {
      "inputs": [],
      "name": "getScoredAddressCount",
      "outputs": [
        {
          "internalType": "uint256",
          "name": "",
          "type": "uint256"
        }
      ],
      "stateMutability": "view",
      "type": "function"
    },
    {
      "inputs": [
        {
          "internalType": "uint256",
          "name": "start",
          "type": "uint256"
        },
        {
          "internalType": "uint256",
          "name": "count",
          "type": "uint256"
        }
      ],
      "name": "getScoredAddresses",
      "outputs": [
        {
          "internalType": "address[]",
          "name": "",
          "type": "address[]"
        }
      ],
      "stateMutability": "view",
      "type": "function"
    },
    {
      "inputs": [],
      "name": "owner",
      "outputs": [
        {
          "internalType": "address",
          "name": "",
          "type": "address"
        }
      ],
      "stateMutability": "view",
      "type": "function"
    },
    {
      "inputs": [
        {
          "internalType": "uint256",
          "name": "",
          "type": "uint256"
        }
      ],
      "name": "scoredAddresses",
      "outputs": [
        {
          "internalType": "address",
          "name": "",
          "type": "address"
        }
      ],
      "stateMutability": "view",
      "type": "function"
    },
    {
      "inputs": [
        {
          "internalType": "address",
          "name": "",
          "type": "address"
        }
      ],
      "name": "scores",
      "outputs": [
        {
          "internalType": "uint256",
          "name": "builderScore",
          "type": "uint256"
        },
        {
          "internalType": "uint256",
          "name": "degenScore",
          "type": "uint256"
        },
        {
          "internalType": "uint256",
          "name": "lastUpdated",
          "type": "uint256"
        }
      ],
      "stateMutability": "view",
      "type": "function"
    },
    {
      "inputs": [
        {
          "internalType": "address",
          "name": "newOwner",
          "type": "address"
        }
      ],
      "name": "transferOwnership",
      "outputs": [],
      "stateMutability": "nonpayable",
      "type": "function"
    },
    {
      "inputs": [
        {
          "internalType": "address",
          "name": "user",
          "type": "address"
        },
        {
          "internalType": "uint256",
          "name": "builderScore",
          "type": "uint256"
        },
        {
          "internalType": "uint256",
          "name": "degenScore",
          "type": "uint256"
        }
      ],
      "name": "updateScore",
      "outputs": [],
      "stateMutability": "nonpayable",
      "type": "function"
    }
  ],
  "bytecode": "0x608060405234801561001057600080fd5b50600080546001600160a01b0319163390811782556040519091907f8be0079c531659141344cd1fd0a4f28419497f9722a3daafe3b4186f6b6457e0908290a3610a9c8061005f6000396000f3fe608060405234801561001057600080fd5b50600436106100b45760003560e01c80639b4a0b45116100715780639b4a0b45146101b1578063ca5347ac146101d6578063d47875d014610203578063e093f7cb14610238578063e745dd2f1461024b578063f2fde38b1461025357600080fd5b80632fa52777146100b95780633892b432146100e957806376dd110f146100fe57806383a4dc72146101475780638da5cb5b146101675780639351365a1461017a575b600080fd5b6100cc6100c73660046107dc565b610266565b6040516001600160a01b0390911681526020015b60405180910390f35b6100fc6100f7366004610811565b610290565b005b61012c61010c366004610844565b600160208190526000918252604090912080549181015460029091015483565b604080519384526020840192909252908201526060016100e0565b61015a610155366004610866565b6102d3565b6040516100e09190610888565b6000546100cc906001600160a01b031681565b6101a3610188366004610844565b6001600160a01b031660009081526001602052604090205490565b6040519081526020016100e0565b6101c46101bf366004610844565b6103cb565b60405160ff90911681526020016100e0565b6101a36101e4366004610844565b6001600160a01b03166000908152600160208190526040909120015490565b610216610211366004610844565b610439565b60408051825181526020808401519082015291810151908201526060016100e0565b6100fc610246366004610921565b61049e565b6002546101a3565b6100fc610261366004610844565b6105e1565b6002818154811061027657600080fd5b6000918252602090912001546001600160a01b0316905081565b6000546001600160a01b031633146102c35760405162461bcd60e51b81526004016102ba906109bb565b60405180910390fd5b6102ce8383836106ca565b505050565b606060006102e18385610a14565b6002549091508111156102f357506002545b60006102ff8583610a27565b905060008167ffffffffffffffff81111561031c5761031c610a3a565b604051908082528060200260200182016040528015610345578160200160208202803683370190505b50905060005b828110156103bf57600261035f8289610a14565b8154811061036f5761036f610a50565b9060005260206000200160009054906101000a90046001600160a01b031682828151811061039f5761039f610a50565b6001600160a01b039092166020928302919091019091015260010161034b565b50925050505b92915050565b6001600160a01b038116600090815260016020818152604080842081516060810183528154808252948201549381018490526002909101549181019190915291111561041a5750600192915050565b8051602082015111156104305750600292915050565b50600092915050565b61045d60405180606001604052806000815260200160008152602001600081525090565b506001600160a01b03166000908152600160208181526040928390208351606081018552815481529281015491830191909152600201549181019190915290565b6000546001600160a01b031633146104c85760405162461bcd60e51b81526004016102ba906109bb565b84831480156104d657508481145b61052c5760405162461bcd60e51b815260206004820152602160248201527f53636f7265426f6172643a206172726179206c656e677468206d69736d6174636044820152600d60fb1b60648201526084016102ba565b60005b858110156105a05761059887878381811061054c5761054c610a50565b90506020020160208101906105619190610844565b86868481811061057357610573610a50565b9050602002013585858581811061058c5761058c610a50565b905060200201356106ca565b60010161052f565b50604080518681524260208201527fb9a3c29ae3a003a687b8c16e7932a95f7402d2ca2ec485b3972408693b5ed74a910160405180910390a1505050505050565b6000546001600160a01b0316331461060b5760405162461bcd60e51b81526004016102ba906109bb565b6001600160a01b03811661066f5760405162461bcd60e51b815260206004820152602560248201527f53636f7265426f6172643a206e6577206f776e6572206973207a65726f206164604482015264647265737360d81b60648201526084016102ba565b600080546040516001600160a01b03808516939216917f8be0079c531659141344cd1fd0a4f28419497f9722a3daafe3b4186f6b6457e091a3600080546001600160a01b0319166001600160a01b0392909216919091179055565b6001600160a01b03831660009081526003602052604090205460ff1661074e576002805460018082019092557f405787fa12a823e0f2b7631cc41b3ba8828b3321ca811111fa75cd3aa3bb5ace0180546001600160a01b0319166001600160a01b0386169081179091556000908152600360205260409020805460ff191690911790555b60408051606080820183528482526020808301858152428486018181526001600160a01b038a16600081815260018087529089902097518855935193870193909355516002909501949094558451878152918201869052938101929092527f4e129cd592c4928775615d37d8f0f5a5e1257dec2f17b8b5fe34881b83b1cdc5910160405180910390a2505050565b6000602082840312156107ee57600080fd5b5035919050565b80356001600160a01b038116811461080c57600080fd5b919050565b60008060006060848603121561082657600080fd5b61082f846107f5565b95602085013595506040909401359392505050565b60006020828403121561085657600080fd5b61085f826107f5565b9392505050565b6000806040838503121561087957600080fd5b50508035926020909101359150565b6020808252825182820181905260009190848201906040850190845b818110156108c95783516001600160a01b0316835292840192918401916001016108a4565b50909695505050505050565b60008083601f8401126108e757600080fd5b50813567ffffffffffffffff8111156108ff57600080fd5b6020830191508360208260051b850101111561091a57600080fd5b9250929050565b6000806000806000806060878903121561093a57600080fd5b863567ffffffffffffffff8082111561095257600080fd5b61095e8a838b016108d5565b9098509650602089013591508082111561097757600080fd5b6109838a838b016108d5565b9096509450604089013591508082111561099c57600080fd5b506109a989828a016108d5565b979a9699509497509295939492505050565b60208082526023908201527f53636f7265426f6172643a2063616c6c6572206973206e6f7420746865206f776040820152623732b960e91b606082015260800190565b634e487b7160e01b600052601160045260246000fd5b808201808211156103c5576103c56109fe565b818103818111156103c5576103c56109fe565b634e487b7160e01b600052604160045260246000fd5b634e487b7160e01b600052603260045260246000fdfea2646970667358221220edf8ce94f06441140f93fc3bf86f9766b49cf9d94e2af58fbf7b0e60f7db6bdc64736f6c63430008180033",
  "linkReferences": {},
  "deployedLinkReferences": {}
}